{
  "_format": "hh-sol-artifact-1",
  "contractName": "FileMetadata",
  "sourceName": "contracts/FileMetadata.sol",
  "abi": [
    {
      "anonymous": false,
      "inputs": [
        {
          "indexed": true,
          "internalType": "address",
          "name": "uploader",
          "type": "address"
        },
        {
          "indexed": false,
          "internalType": "string",
          "name": "cid",
          "type": "string"
        },
        {
          "indexed": false,
          "internalType": "string",
          "name": "fileName",
          "type": "string"
        },
        {
          "indexed": false,
          "internalType": "uint256",
          "name": "timestamp",
          "type": "uint256"
        }
      ],
      "name": "MetadataUploaded",
      "type": "event"
    },
    {
      "inputs": [
        {
          "internalType": "string",
          "name": "_cid",
          "type": "string"
        },
        {
          "internalType": "string",
          "name": "_fileName",
          "type": "string"
        }
      ],
      "name": "addMetadata",
      "outputs": [],
      "stateMutability": "nonpayable",
      "type": "function"
    },
    {
      "inputs": [],
      "name": "getAllMetadata",
      "outputs": [
        {
          "components": [
            {
              "internalType": "string",
              "name": "cid",
              "type": "string"
            },
            {
              "internalType": "string",
              "name": "fileName",
              "type": "string"
            },
            {
              "internalType": "uint256",
              "name": "timestamp",
              "type": "uint256"
            }
          ],
          "internalType": "struct FileMetadata.Metadata[]",
          "name": "",
          "type": "tuple[]"
        }
      ],
      "stateMutability": "view",
      "type": "function"
    },
    {
      "inputs": [
        {
          "internalType": "address",
          "name": "_user",
          "type": "address"
        },
        {
          "internalType": "uint256",
          "name": "_index",
          "type": "uint256"
        }
      ],
      "name": "getMetadata",
      "outputs": [
        {
          "internalType": "string",
          "name": "cid",
          "type": "string"
        },
        {
          "internalType": "string",
          "name": "fileName",
          "type": "string"
        },
        {
          "internalType": "uint256",
          "name": "timestamp",
          "type": "uint256"
        }
      ],
      "stateMutability": "view",
      "type": "function"
    },
    {
      "inputs": [
        {
          "internalType": "address",
          "name": "_user",
          "type": "address"
        }
      ],
      "name": "getMetadataCount",
      "outputs": [
        {
          "internalType": "uint256",
          "name": "",
          "type": "uint256"
        }
      ],
      "stateMutability": "view",
      "type": "function"
    }
  ],
  "bytecode": "0x608060405234801561001057600080fd5b50610924806100206000396000f3fe608060405234801561001057600080fd5b506004361061004c5760003560e01c80636c6caf731461005157806379e5d6e814610066578063d9a19635146100a2578063f8501fec146100b7575b600080fd5b61006461005f3660046105b6565b6100d9565b005b61008f610074366004610636565b6001600160a01b031660009081526020819052604090205490565b6040519081526020015b60405180910390f35b6100aa61018a565b604051610099919061069e565b6100ca6100c536600461072f565b610320565b60405161009993929190610759565b60408051606081018252838152602080820184905242828401523360009081528082529283208054600181018255908452922081519192839260039091029091019081906101279082610818565b506020820151600182019061013c9082610818565b506040918201516002909101555133907f090a6cc5f3f6f52a98b4338a5ec1802c695cd7be334a01b7f5a97f6a1598e4e49061017d90869086904290610759565b60405180910390a2505050565b33600090815260208181526040808320805482518185028101850190935280835260609492939192909184015b8282101561031757838290600052602060002090600302016040518060600160405290816000820180546101ea9061078f565b80601f01602080910402602001604051908101604052809291908181526020018280546102169061078f565b80156102635780601f1061023857610100808354040283529160200191610263565b820191906000526020600020905b81548152906001019060200180831161024657829003601f168201915b5050505050815260200160018201805461027c9061078f565b80601f01602080910402602001604051908101604052809291908181526020018280546102a89061078f565b80156102f55780601f106102ca576101008083540402835291602001916102f5565b820191906000526020600020905b8154815290600101906020018083116102d857829003601f168201915b50505050508152602001600282015481525050815260200190600101906101b7565b50505050905090565b6001600160a01b038216600090815260208190526040812054606091829184106103865760405162461bcd60e51b8152602060048201526013602482015272496e646578206f7574206f6620626f756e647360681b604482015260640160405180910390fd5b6001600160a01b03851660009081526020819052604081208054869081106103b0576103b06108d8565b90600052602060002090600302016040518060600160405290816000820180546103d99061078f565b80601f01602080910402602001604051908101604052809291908181526020018280546104059061078f565b80156104525780601f1061042757610100808354040283529160200191610452565b820191906000526020600020905b81548152906001019060200180831161043557829003601f168201915b5050505050815260200160018201805461046b9061078f565b80601f01602080910402602001604051908101604052809291908181526020018280546104979061078f565b80156104e45780601f106104b9576101008083540402835291602001916104e4565b820191906000526020600020905b8154815290600101906020018083116104c757829003601f168201915b505050918352505060029190910154602091820152815190820151604090920151909891975095509350505050565b634e487b7160e01b600052604160045260246000fd5b600082601f83011261053a57600080fd5b813567ffffffffffffffff8082111561055557610555610513565b604051601f8301601f19908116603f0116810190828211818310171561057d5761057d610513565b8160405283815286602085880101111561059657600080fd5b836020870160208301376000602085830101528094505050505092915050565b600080604083850312156105c957600080fd5b823567ffffffffffffffff808211156105e157600080fd5b6105ed86838701610529565b9350602085013591508082111561060357600080fd5b5061061085828601610529565b9150509250929050565b80356001600160a01b038116811461063157600080fd5b919050565b60006020828403121561064857600080fd5b6106518261061a565b9392505050565b6000815180845260005b8181101561067e57602081850181015186830182015201610662565b506000602082860101526020601f19601f83011685010191505092915050565b60006020808301818452808551808352604092508286019150828160051b87010184880160005b8381101561072157603f198984030185528151606081518186526106eb82870182610658565b915050888201518582038a8701526107038282610658565b928901519589019590955250948701949250908601906001016106c5565b509098975050505050505050565b6000806040838503121561074257600080fd5b61074b8361061a565b946020939093013593505050565b60608152600061076c6060830186610658565b828103602084015261077e8186610658565b915050826040830152949350505050565b600181811c908216806107a357607f821691505b6020821081036107c357634e487b7160e01b600052602260045260246000fd5b50919050565b601f82111561081357600081815260208120601f850160051c810160208610156107f05750805b601f850160051c820191505b8181101561080f578281556001016107fc565b5050505b505050565b815167ffffffffffffffff81111561083257610832610513565b61084681610840845461078f565b846107c9565b602080601f83116001811461087b57600084156108635750858301515b600019600386901b1c1916600185901b17855561080f565b600085815260208120601f198616915b828110156108aa5788860151825594840194600190910190840161088b565b50858210156108c85787850151600019600388901b60f8161c191681555b5050505050600190811b01905550565b634e487b7160e01b600052603260045260246000fdfea2646970667358221220498670e60f169eef11042637b5ff5796076d4e1f88d4f9c8eb26605b4853915e64736f6c63430008120033",
  "linkReferences": {},
  "deployedLinkReferences": {}
}