{
  "_format": "hh-sol-artifact-1",
  "contractName": "AccessControl",
  "sourceName": "contracts/AccessControl.sol",
  "abi": [
    {
      "inputs": [],
      "stateMutability": "nonpayable",
      "type": "constructor"
    },
    {
      "anonymous": false,
      "inputs": [
        {
          "indexed": true,
          "internalType": "bytes32",
          "name": "role",
          "type": "bytes32"
        },
        {
          "indexed": true,
          "internalType": "address",
          "name": "account",
          "type": "address"
        },
        {
          "indexed": true,
          "internalType": "address",
          "name": "sender",
          "type": "address"
        }
      ],
      "name": "RoleGranted",
      "type": "event"
    },
    {
      "anonymous": false,
      "inputs": [
        {
          "indexed": true,
          "internalType": "bytes32",
          "name": "role",
          "type": "bytes32"
        },
        {
          "indexed": true,
          "internalType": "address",
          "name": "account",
          "type": "address"
        },
        {
          "indexed": true,
          "internalType": "address",
          "name": "sender",
          "type": "address"
        }
      ],
      "name": "RoleRevoked",
      "type": "event"
    },
    {
      "inputs": [],
      "name": "ADMIN_ROLE",
      "outputs": [
        {
          "internalType": "bytes32",
          "name": "",
          "type": "bytes32"
        }
      ],
      "stateMutability": "view",
      "type": "function"
    },
    {
      "inputs": [],
      "name": "USER_ROLE",
      "outputs": [
        {
          "internalType": "bytes32",
          "name": "",
          "type": "bytes32"
        }
      ],
      "stateMutability": "view",
      "type": "function"
    },
    {
      "inputs": [
        {
          "internalType": "bytes32",
          "name": "role",
          "type": "bytes32"
        },
        {
          "internalType": "address",
          "name": "account",
          "type": "address"
        }
      ],
      "name": "grantRole",
      "outputs": [],
      "stateMutability": "nonpayable",
      "type": "function"
    },
    {
      "inputs": [
        {
          "internalType": "bytes32",
          "name": "role",
          "type": "bytes32"
        },
        {
          "internalType": "address",
          "name": "account",
          "type": "address"
        }
      ],
      "name": "hasRole",
      "outputs": [
        {
          "internalType": "bool",
          "name": "",
          "type": "bool"
        }
      ],
      "stateMutability": "view",
      "type": "function"
    },
    {
      "inputs": [
        {
          "internalType": "bytes32",
          "name": "role",
          "type": "bytes32"
        },
        {
          "internalType": "address",
          "name": "account",
          "type": "address"
        }
      ],
      "name": "revokeRole",
      "outputs": [],
      "stateMutability": "nonpayable",
      "type": "function"
    }
  ],
  "bytecode": "0x608060405234801561001057600080fd5b5061003b7fdf8b4c520ffe197c5343c6f5aec59570151ef9a492f2c624fd45ddde6135ec4233610040565b61011d565b6001600160a01b03811660009081526020818152604080832085845290915290205460ff16156100c25760405162461bcd60e51b815260206004820152602360248201527f416363657373436f6e74726f6c3a20526f6c6520616c7265616479206772616e6044820152621d195960ea1b606482015260840160405180910390fd5b6001600160a01b038116600081815260208181526040808320868452909152808220805460ff191660011790555133929185917f2f8788117e7eff1d82e926ec794901d17c78024a50270940304540a733656f0d9190a45050565b61046d8061012c6000396000f3fe608060405234801561001057600080fd5b50600436106100575760003560e01c8063131191611461005c5780632f2ff15d1461009657806375b238fc146100ab57806391d14854146100d2578063d547741f14610116575b600080fd5b6100837f2db9fd3d099848027c2383d0a083396f6c41510d7acfd92adc99b6cffcf31e9681565b6040519081526020015b60405180910390f35b6100a96100a43660046103fb565b610129565b005b6100837fdf8b4c520ffe197c5343c6f5aec59570151ef9a492f2c624fd45ddde6135ec4281565b6101066100e03660046103fb565b6001600160a01b0316600090815260208181526040808320938352929052205460ff1690565b604051901515815260200161008d565b6100a96101243660046103fb565b6101c6565b336000908152602081815260408083207fdf8b4c520ffe197c5343c6f5aec59570151ef9a492f2c624fd45ddde6135ec4280855292529091205460ff166101b75760405162461bcd60e51b815260206004820152601c60248201527f416363657373436f6e74726f6c3a204163636573732064656e6965640000000060448201526064015b60405180910390fd5b6101c18383610259565b505050565b336000908152602081815260408083207fdf8b4c520ffe197c5343c6f5aec59570151ef9a492f2c624fd45ddde6135ec4280855292529091205460ff1661024f5760405162461bcd60e51b815260206004820152601c60248201527f416363657373436f6e74726f6c3a204163636573732064656e6965640000000060448201526064016101ae565b6101c18383610332565b6001600160a01b03811660009081526020818152604080832085845290915290205460ff16156102d75760405162461bcd60e51b815260206004820152602360248201527f416363657373436f6e74726f6c3a20526f6c6520616c7265616479206772616e6044820152621d195960ea1b60648201526084016101ae565b6001600160a01b038116600081815260208181526040808320868452909152808220805460ff191660011790555133929185917f2f8788117e7eff1d82e926ec794901d17c78024a50270940304540a733656f0d9190a45050565b6001600160a01b03811660009081526020818152604080832085845290915290205460ff166103a35760405162461bcd60e51b815260206004820152601d60248201527f416363657373436f6e74726f6c3a20526f6c65206e6f7420666f756e6400000060448201526064016101ae565b6001600160a01b038116600081815260208181526040808320868452909152808220805460ff191690555133929185917ff6391f5c32d9c69d2a47ea670b442974b53935d1edc7fd64eb21e047a839171b9190a45050565b6000806040838503121561040e57600080fd5b8235915060208301356001600160a01b038116811461042c57600080fd5b80915050925092905056fea2646970667358221220148eb397ea3b9c0bd1b32a8cd51ab3ddfcd08e9e2144a376659021c5531378ea64736f6c63430008120033",
  "linkReferences": {},
  "deployedLinkReferences": {}
}