{
  "_format": "hh-sol-artifact-1",
  "contractName": "ActivityLog",
  "sourceName": "contracts/ActivityLog.sol",
  "abi": [
    {
      "anonymous": false,
      "inputs": [
        {
          "indexed": true,
          "internalType": "address",
          "name": "user",
          "type": "address"
        },
        {
          "indexed": false,
          "internalType": "string",
          "name": "action",
          "type": "string"
        },
        {
          "indexed": true,
          "internalType": "bytes32",
          "name": "fileId",
          "type": "bytes32"
        },
        {
          "indexed": false,
          "internalType": "uint256",
          "name": "timestamp",
          "type": "uint256"
        }
      ],
      "name": "LogCreated",
      "type": "event"
    },
    {
      "inputs": [
        {
          "internalType": "address",
          "name": "user",
          "type": "address"
        },
        {
          "internalType": "string",
          "name": "action",
          "type": "string"
        },
        {
          "internalType": "bytes32",
          "name": "fileId",
          "type": "bytes32"
        }
      ],
      "name": "addLog",
      "outputs": [],
      "stateMutability": "nonpayable",
      "type": "function"
    },
    {
      "inputs": [],
      "name": "getAllLogs",
      "outputs": [
        {
          "components": [
            {
              "internalType": "address",
              "name": "user",
              "type": "address"
            },
            {
              "internalType": "string",
              "name": "action",
              "type": "string"
            },
            {
              "internalType": "bytes32",
              "name": "fileId",
              "type": "bytes32"
            },
            {
              "internalType": "uint256",
              "name": "timestamp",
              "type": "uint256"
            }
          ],
          "internalType": "struct ActivityLog.Log[]",
          "name": "",
          "type": "tuple[]"
        }
      ],
      "stateMutability": "view",
      "type": "function"
    },
    {
      "inputs": [
        {
          "internalType": "bytes32",
          "name": "fileId",
          "type": "bytes32"
        }
      ],
      "name": "getLogsByFile",
      "outputs": [
        {
          "components": [
            {
              "internalType": "address",
              "name": "user",
              "type": "address"
            },
            {
              "internalType": "string",
              "name": "action",
              "type": "string"
            },
            {
              "internalType": "bytes32",
              "name": "fileId",
              "type": "bytes32"
            },
            {
              "internalType": "uint256",
              "name": "timestamp",
              "type": "uint256"
            }
          ],
          "internalType": "struct ActivityLog.Log[]",
          "name": "",
          "type": "tuple[]"
        }
      ],
      "stateMutability": "view",
      "type": "function"
    },
    {
      "inputs": [
        {
          "internalType": "address",
          "name": "user",
          "type": "address"
        }
      ],
      "name": "getLogsByUser",
      "outputs": [
        {
          "components": [
            {
              "internalType": "address",
              "name": "user",
              "type": "address"
            },
            {
              "internalType": "string",
              "name": "action",
              "type": "string"
            },
            {
              "internalType": "bytes32",
              "name": "fileId",
              "type": "bytes32"
            },
            {
              "internalType": "uint256",
              "name": "timestamp",
              "type": "uint256"
            }
          ],
          "internalType": "struct ActivityLog.Log[]",
          "name": "",
          "type": "tuple[]"
        }
      ],
      "stateMutability": "view",
      "type": "function"
    }
  ],
  "bytecode": "0x608060405234801561001057600080fd5b50610b46806100206000396000f3fe608060405234801561001057600080fd5b506004361061004c5760003560e01c8063213fd4d2146100515780637ee02da61461007a5780639f13f8a31461008d578063e581329b146100a2575b600080fd5b61006461005f366004610754565b6100aa565b60405161007191906107b3565b60405180910390f35b610064610088366004610865565b6102e0565b6100a061009b36600461089d565b61052e565b005b610064610639565b60606000805b6000548110156101055783600082815481106100ce576100ce610968565b906000526020600020906004020160020154036100f357816100ef8161097e565b9250505b806100fd8161097e565b9150506100b0565b5060008167ffffffffffffffff81111561012157610121610887565b60405190808252806020026020018201604052801561017357816020015b60408051608081018252600080825260606020808401829052938301829052820152825260001990920191018161013f5790505b5090506000805b6000548110156102d657856000828154811061019857610198610968565b906000526020600020906004020160020154036102c457600081815481106101c2576101c2610968565b6000918252602091829020604080516080810190915260049092020180546001600160a01b031682526001810180549293919291840191610202906109a5565b80601f016020809104026020016040519081016040528092919081815260200182805461022e906109a5565b801561027b5780601f106102505761010080835404028352916020019161027b565b820191906000526020600020905b81548152906001019060200180831161025e57829003601f168201915b50505050508152602001600282015481526020016003820154815250508383815181106102aa576102aa610968565b602002602001018190525081806102c09061097e565b9250505b806102ce8161097e565b91505061017a565b5090949350505050565b60606000805b60005481101561034c57836001600160a01b03166000828154811061030d5761030d610968565b60009182526020909120600490910201546001600160a01b03160361033a57816103368161097e565b9250505b806103448161097e565b9150506102e6565b5060008167ffffffffffffffff81111561036857610368610887565b6040519080825280602002602001820160405280156103ba57816020015b6040805160808101825260008082526060602080840182905293830182905282015282526000199092019101816103865790505b5090506000805b6000548110156102d657856001600160a01b0316600082815481106103e8576103e8610968565b60009182526020909120600490910201546001600160a01b03160361051c576000818154811061041a5761041a610968565b6000918252602091829020604080516080810190915260049092020180546001600160a01b03168252600181018054929391929184019161045a906109a5565b80601f0160208091040260200160405190810160405280929190818152602001828054610486906109a5565b80156104d35780601f106104a8576101008083540402835291602001916104d3565b820191906000526020600020905b8154815290600101906020018083116104b657829003601f168201915b505050505081526020016002820154815260200160038201548152505083838151811061050257610502610968565b602002602001018190525081806105189061097e565b9250505b806105268161097e565b9150506103c1565b604080516080810182526001600160a01b038581168252602082018581529282018490524260608301526000805460018101825590805282517f290decd9548b62a8d60345a988386fc84ba6bc95484008f6362f93160ef3e563600490920291820180546001600160a01b031916919093161782559251919283927f290decd9548b62a8d60345a988386fc84ba6bc95484008f6362f93160ef3e564909101906105d89082610a2e565b506040820151816002015560608201518160030155505081846001600160a01b03167ff1a201a144c6d6faaef135785f139a83f4b46c4a200c5fde0619528a5310b68d854260405161062b929190610aee565b60405180910390a350505050565b60606000805480602002602001604051908101604052809291908181526020016000905b8282101561074b57600084815260209081902060408051608081019091526004850290910180546001600160a01b0316825260018101805492939192918401916106a6906109a5565b80601f01602080910402602001604051908101604052809291908181526020018280546106d2906109a5565b801561071f5780601f106106f45761010080835404028352916020019161071f565b820191906000526020600020905b81548152906001019060200180831161070257829003601f168201915b50505050508152602001600282015481526020016003820154815250508152602001906001019061065d565b50505050905090565b60006020828403121561076657600080fd5b5035919050565b6000815180845260005b8181101561079357602081850181015186830182015201610777565b506000602082860101526020601f19601f83011685010191505092915050565b60006020808301818452808551808352604092508286019150828160051b87010184880160005b8381101561083b57888303603f19018552815180516001600160a01b03168452878101516080898601819052906108138287018261076d565b838a0151878b01526060938401519390960192909252505093860193908601906001016107da565b509098975050505050505050565b80356001600160a01b038116811461086057600080fd5b919050565b60006020828403121561087757600080fd5b61088082610849565b9392505050565b634e487b7160e01b600052604160045260246000fd5b6000806000606084860312156108b257600080fd5b6108bb84610849565b9250602084013567ffffffffffffffff808211156108d857600080fd5b818601915086601f8301126108ec57600080fd5b8135818111156108fe576108fe610887565b604051601f8201601f19908116603f0116810190838211818310171561092657610926610887565b8160405282815289602084870101111561093f57600080fd5b826020860160208301376000602084830101528096505050505050604084013590509250925092565b634e487b7160e01b600052603260045260246000fd5b60006001820161099e57634e487b7160e01b600052601160045260246000fd5b5060010190565b600181811c908216806109b957607f821691505b6020821081036109d957634e487b7160e01b600052602260045260246000fd5b50919050565b601f821115610a2957600081815260208120601f850160051c81016020861015610a065750805b601f850160051c820191505b81811015610a2557828155600101610a12565b5050505b505050565b815167ffffffffffffffff811115610a4857610a48610887565b610a5c81610a5684546109a5565b846109df565b602080601f831160018114610a915760008415610a795750858301515b600019600386901b1c1916600185901b178555610a25565b600085815260208120601f198616915b82811015610ac057888601518255948401946001909101908401610aa1565b5085821015610ade5787850151600019600388901b60f8161c191681555b5050505050600190811b01905550565b604081526000610b01604083018561076d565b9050826020830152939250505056fea26469706673582212209d7c3c67660bb334b2771ad13f1abf2df2a36a0ba5cddd960a52cba75fff7f9164736f6c63430008120033",
  "linkReferences": {},
  "deployedLinkReferences": {}
}