{
  "_format": "hh-sol-artifact-1",
  "contractName": "AuditLog",
  "sourceName": "contracts/AuditLog.sol",
  "abi": [
    {
      "inputs": [
        {
          "internalType": "address",
          "name": "verifierAddress",
          "type": "address"
        }
      ],
      "stateMutability": "nonpayable",
      "type": "constructor"
    },
    {
      "anonymous": false,
      "inputs": [
        {
          "indexed": true,
          "internalType": "address",
          "name": "user",
          "type": "address"
        },
        {
          "indexed": true,
          "internalType": "bytes32",
          "name": "fileId",
          "type": "bytes32"
        },
        {
          "indexed": false,
          "internalType": "uint256",
          "name": "timestamp",
          "type": "uint256"
        },
        {
          "indexed": false,
          "internalType": "string",
          "name": "action",
          "type": "string"
        }
      ],
      "name": "LogAdded",
      "type": "event"
    },
    {
      "inputs": [
        {
          "internalType": "address",
          "name": "user",
          "type": "address"
        },
        {
          "internalType": "bytes32",
          "name": "fileId",
          "type": "bytes32"
        },
        {
          "internalType": "string",
          "name": "action",
          "type": "string"
        },
        {
          "internalType": "uint256[2]",
          "name": "proofA",
          "type": "uint256[2]"
        },
        {
          "internalType": "uint256[2][2]",
          "name": "proofB",
          "type": "uint256[2][2]"
        },
        {
          "internalType": "uint256[2]",
          "name": "proofC",
          "type": "uint256[2]"
        },
        {
          "internalType": "uint256[1]",
          "name": "publicSignals",
          "type": "uint256[1]"
        }
      ],
      "name": "addLog",
      "outputs": [],
      "stateMutability": "nonpayable",
      "type": "function"
    },
    {
      "inputs": [
        {
          "internalType": "uint256",
          "name": "index",
          "type": "uint256"
        }
      ],
      "name": "getLog",
      "outputs": [
        {
          "internalType": "address",
          "name": "",
          "type": "address"
        },
        {
          "internalType": "bytes32",
          "name": "",
          "type": "bytes32"
        },
        {
          "internalType": "uint256",
          "name": "",
          "type": "uint256"
        },
        {
          "internalType": "string",
          "name": "",
          "type": "string"
        }
      ],
      "stateMutability": "view",
      "type": "function"
    },
    {
      "inputs": [],
      "name": "getLogsCount",
      "outputs": [
        {
          "internalType": "uint256",
          "name": "",
          "type": "uint256"
        }
      ],
      "stateMutability": "view",
      "type": "function"
    },
    {
      "inputs": [
        {
          "internalType": "uint256",
          "name": "",
          "type": "uint256"
        }
      ],
      "name": "logs",
      "outputs": [
        {
          "internalType": "address",
          "name": "user",
          "type": "address"
        },
        {
          "internalType": "bytes32",
          "name": "fileId",
          "type": "bytes32"
        },
        {
          "internalType": "uint256",
          "name": "timestamp",
          "type": "uint256"
        },
        {
          "internalType": "string",
          "name": "action",
          "type": "string"
        }
      ],
      "stateMutability": "view",
      "type": "function"
    },
    {
      "inputs": [],
      "name": "verifier",
      "outputs": [
        {
          "internalType": "contract Verifier",
          "name": "",
          "type": "address"
        }
      ],
      "stateMutability": "view",
      "type": "function"
    }
  ],
  "bytecode": "0x608060405234801561001057600080fd5b50604051610b3f380380610b3f83398101604081905261002f91610054565b600080546001600160a01b0319166001600160a01b0392909216919091179055610084565b60006020828403121561006657600080fd5b81516001600160a01b038116811461007d57600080fd5b9392505050565b610aac806100936000396000f3fe608060405234801561001057600080fd5b50600436106100575760003560e01c80632b7ac3f31461005c5780633206b2c61461008c578063c9dd7781146100af578063cc9e300f146100c4578063e79899bd146100d5575b600080fd5b60005461006f906001600160a01b031681565b6040516001600160a01b0390911681526020015b60405180910390f35b61009f61009a366004610506565b6100e8565b6040516100839493929190610565565b6100c26100bd366004610719565b61022f565b005b600154604051908152602001610083565b61009f6100e3366004610506565b610434565b6000806000606060018054905085106101485760405162461bcd60e51b815260206004820152601760248201527f4c6f6720696e646578206f7574206f6620626f756e647300000000000000000060448201526064015b60405180910390fd5b60006001868154811061015d5761015d610820565b906000526020600020906004020190508060000160009054906101000a90046001600160a01b0316816001015482600201548360030180805461019f90610836565b80601f01602080910402602001604051908101604052809291908181526020018280546101cb90610836565b80156102185780601f106101ed57610100808354040283529160200191610218565b820191906000526020600020905b8154815290600101906020018083116101fb57829003601f168201915b505050505090509450945094509450509193509193565b600080546040516343753b4d60e01b81526001600160a01b03909116906343753b4d90610266908890889088908890600401610899565b602060405180830381865afa158015610283573d6000803e3d6000fd5b505050506040513d601f19601f820116820180604052508101906102a7919061091d565b9050806102e95760405162461bcd60e51b815260206004820152601060248201526f24b73b30b634b2102d2590383937b7b360811b604482015260640161013f565b604080516080810182526001600160a01b038a81168252602082018a815242938301938452606083018a815260018054808201825560009190915284517fb10e2d527612073b26eecdfd717e6a320cf44b4afac2b0732d9fcbe2b7fa0cf6600490920291820180546001600160a01b0319169190951617845591517fb10e2d527612073b26eecdfd717e6a320cf44b4afac2b0732d9fcbe2b7fa0cf783015593517fb10e2d527612073b26eecdfd717e6a320cf44b4afac2b0732d9fcbe2b7fa0cf88201559251919290917fb10e2d527612073b26eecdfd717e6a320cf44b4afac2b0732d9fcbe2b7fa0cf9909101906103e39082610995565b50505086886001600160a01b03167f82df36f39c0dab04bff86598c58a427b4813939dc172f1b0c4c5d8368947b8e14289604051610422929190610a55565b60405180910390a35050505050505050565b6001818154811061044457600080fd5b600091825260209091206004909102018054600182015460028301546003840180546001600160a01b0390941695509193909290919061048390610836565b80601f01602080910402602001604051908101604052809291908181526020018280546104af90610836565b80156104fc5780601f106104d1576101008083540402835291602001916104fc565b820191906000526020600020905b8154815290600101906020018083116104df57829003601f168201915b5050505050905084565b60006020828403121561051857600080fd5b5035919050565b6000815180845260005b8181101561054557602081850181015186830182015201610529565b506000602082860101526020601f19601f83011685010191505092915050565b60018060a01b0385168152836020820152826040820152608060608201526000610592608083018461051f565b9695505050505050565b634e487b7160e01b600052604160045260246000fd5b6040805190810167ffffffffffffffff811182821017156105d5576105d561059c565b60405290565b604051601f8201601f1916810167ffffffffffffffff811182821017156106045761060461059c565b604052919050565b600082601f83011261061d57600080fd5b6106256105b2565b80604084018581111561063757600080fd5b845b81811015610651578035845260209384019301610639565b509095945050505050565b600082601f83011261066d57600080fd5b6106756105b2565b80608084018581111561068757600080fd5b845b818110156106515761069b878261060c565b8452602090930192604001610689565b600082601f8301126106bc57600080fd5b604051602080820182811067ffffffffffffffff821117156106e0576106e061059c565b60405281848201868111156106f457600080fd5b855b8181101561070d57803583529183019183016106f6565b50929695505050505050565b6000806000806000806000610180888a03121561073557600080fd5b87356001600160a01b038116811461074c57600080fd5b96506020888101359650604089013567ffffffffffffffff8082111561077157600080fd5b818b0191508b601f83011261078557600080fd5b8135818111156107975761079761059c565b6107a9601f8201601f191685016105db565b91508082528c848285010111156107bf57600080fd5b80848401858401376000848284010152508097505050506107e38960608a0161060c565b93506107f28960a08a0161065c565b9250610802896101208a0161060c565b9150610812896101608a016106ab565b905092959891949750929550565b634e487b7160e01b600052603260045260246000fd5b600181811c9082168061084a57607f821691505b60208210810361086a57634e487b7160e01b600052602260045260246000fd5b50919050565b8060005b6002811015610893578151845260209384019390910190600101610874565b50505050565b61012081016108a88287610870565b60408083018660005b60028110156108d8576108c5838351610870565b91830191602091909101906001016108b1565b505050506108e960c0830185610870565b61010082018360005b60018110156109115781518352602092830192909101906001016108f2565b50505095945050505050565b60006020828403121561092f57600080fd5b8151801515811461093f57600080fd5b9392505050565b601f82111561099057600081815260208120601f850160051c8101602086101561096d5750805b601f850160051c820191505b8181101561098c57828155600101610979565b5050505b505050565b815167ffffffffffffffff8111156109af576109af61059c565b6109c3816109bd8454610836565b84610946565b602080601f8311600181146109f857600084156109e05750858301515b600019600386901b1c1916600185901b17855561098c565b600085815260208120601f198616915b82811015610a2757888601518255948401946001909101908401610a08565b5085821015610a455787850151600019600388901b60f8161c191681555b5050505050600190811b01905550565b828152604060208201526000610a6e604083018461051f565b94935050505056fea2646970667358221220b227ebd9fc126fd358484c1cdcc47a1e9875de073c7bd572d0a6d8be951d76b364736f6c63430008120033",
  "linkReferences": {},
  "deployedLinkReferences": {}
}