{
  "_format": "hh-sol-artifact-1",
  "contractName": "FileAccess",
  "sourceName": "contracts/FileAccess.sol",
  "abi": [
    {
      "anonymous": false,
      "inputs": [
        {
          "indexed": true,
          "internalType": "bytes32",
          "name": "fileId",
          "type": "bytes32"
        },
        {
          "indexed": true,
          "internalType": "address",
          "name": "grantee",
          "type": "address"
        },
        {
          "indexed": false,
          "internalType": "enum FileAccess.AccessLevel",
          "name": "accessLevel",
          "type": "uint8"
        }
      ],
      "name": "AccessGranted",
      "type": "event"
    },
    {
      "anonymous": false,
      "inputs": [
        {
          "indexed": true,
          "internalType": "bytes32",
          "name": "fileId",
          "type": "bytes32"
        },
        {
          "indexed": true,
          "internalType": "address",
          "name": "grantee",
          "type": "address"
        }
      ],
      "name": "AccessRevoked",
      "type": "event"
    },
    {
      "anonymous": false,
      "inputs": [
        {
          "indexed": true,
          "internalType": "bytes32",
          "name": "fileId",
          "type": "bytes32"
        },
        {
          "indexed": true,
          "internalType": "address",
          "name": "owner",
          "type": "address"
        },
        {
          "indexed": false,
          "internalType": "string",
          "name": "ipfsCid",
          "type": "string"
        }
      ],
      "name": "FileUploaded",
      "type": "event"
    },
    {
      "inputs": [
        {
          "internalType": "bytes32",
          "name": "fileId",
          "type": "bytes32"
        },
        {
          "internalType": "address",
          "name": "user",
          "type": "address"
        }
      ],
      "name": "checkAccess",
      "outputs": [
        {
          "internalType": "enum FileAccess.AccessLevel",
          "name": "",
          "type": "uint8"
        }
      ],
      "stateMutability": "view",
      "type": "function"
    },
    {
      "inputs": [
        {
          "internalType": "bytes32",
          "name": "",
          "type": "bytes32"
        }
      ],
      "name": "files",
      "outputs": [
        {
          "internalType": "address",
          "name": "owner",
          "type": "address"
        },
        {
          "internalType": "string",
          "name": "ipfsCid",
          "type": "string"
        }
      ],
      "stateMutability": "view",
      "type": "function"
    },
    {
      "inputs": [
        {
          "internalType": "bytes32",
          "name": "fileId",
          "type": "bytes32"
        },
        {
          "internalType": "address",
          "name": "grantee",
          "type": "address"
        },
        {
          "internalType": "enum FileAccess.AccessLevel",
          "name": "accessLevel",
          "type": "uint8"
        }
      ],
      "name": "grantAccess",
      "outputs": [],
      "stateMutability": "nonpayable",
      "type": "function"
    },
    {
      "inputs": [
        {
          "internalType": "bytes32",
          "name": "fileId",
          "type": "bytes32"
        },
        {
          "internalType": "address",
          "name": "grantee",
          "type": "address"
        }
      ],
      "name": "revokeAccess",
      "outputs": [],
      "stateMutability": "nonpayable",
      "type": "function"
    },
    {
      "inputs": [
        {
          "internalType": "string",
          "name": "ipfsCid",
          "type": "string"
        }
      ],
      "name": "uploadFile",
      "outputs": [
        {
          "internalType": "bytes32",
          "name": "",
          "type": "bytes32"
        }
      ],
      "stateMutability": "nonpayable",
      "type": "function"
    }
  ],
  "bytecode": "0x608060405234801561001057600080fd5b506108a8806100206000396000f3fe608060405234801561001057600080fd5b50600436106100575760003560e01c8063282f02c71461005c5780633e1fd0da146100715780638d53b208146100c257806398c9adff146100d5578063e37ffc30146100f6575b600080fd5b61006f61006a3660046104c6565b610117565b005b6100ac61007f36600461050a565b6000828152602081815260408083206001600160a01b038516845260020190915290205460ff1692915050565b6040516100b9919061054c565b60405180910390f35b61006f6100d036600461050a565b610253565b6100e86100e3366004610574565b610355565b6040516100b99291906105dd565b61010961010436600461061f565b610404565b6040519081526020016100b9565b60008381526020819052604090205483906001600160a01b031633146101795760405162461bcd60e51b81526020600482015260126024820152712737ba103a3432903334b6329037bbb732b960711b60448201526064015b60405180910390fd5b6001600160a01b0383166101c15760405162461bcd60e51b815260206004820152600f60248201526e496e76616c6964206164647265737360881b6044820152606401610170565b6000848152602081815260408083206001600160a01b038716845260029081019092529091208054849260ff1990911690600190849081111561020657610206610536565b0217905550826001600160a01b0316847f93df6b769e5d048e613e741b400dccc99f2ab71aa9da367242838834f521bdd184604051610245919061054c565b60405180910390a350505050565b60008281526020819052604090205482906001600160a01b031633146102b05760405162461bcd60e51b81526020600482015260126024820152712737ba103a3432903334b6329037bbb732b960711b6044820152606401610170565b6001600160a01b0382166102f85760405162461bcd60e51b815260206004820152600f60248201526e496e76616c6964206164647265737360881b6044820152606401610170565b6000838152602081815260408083206001600160a01b0386168085526002909101909252808320805460ff1916905551909185917fe7906b77ea165c70ad8268ce5b59b778a198edf9c1ae4118378eefdc76fce5f49190a3505050565b600060208190529081526040902080546001820180546001600160a01b039092169291610381906106d0565b80601f01602080910402602001604051908101604052809291908181526020018280546103ad906106d0565b80156103fa5780601f106103cf576101008083540402835291602001916103fa565b820191906000526020600020905b8154815290600101906020018083116103dd57829003601f168201915b5050505050905082565b60008082334260405160200161041c9392919061070a565b60408051601f198184030181529181528151602092830120600081815292839052912080546001600160a01b03191633178155909150600181016104608582610798565b50336001600160a01b0316827f7237b089d1a252ec5312d4f64b1378a99d12760dfcaa22429ba0bd7c31d3fc888660405161049b9190610858565b60405180910390a35092915050565b80356001600160a01b03811681146104c157600080fd5b919050565b6000806000606084860312156104db57600080fd5b833592506104eb602085016104aa565b91506040840135600381106104ff57600080fd5b809150509250925092565b6000806040838503121561051d57600080fd5b8235915061052d602084016104aa565b90509250929050565b634e487b7160e01b600052602160045260246000fd5b602081016003831061056e57634e487b7160e01b600052602160045260246000fd5b91905290565b60006020828403121561058657600080fd5b5035919050565b60005b838110156105a8578181015183820152602001610590565b50506000910152565b600081518084526105c981602086016020860161058d565b601f01601f19169290920160200192915050565b6001600160a01b0383168152604060208201819052600090610601908301846105b1565b949350505050565b634e487b7160e01b600052604160045260246000fd5b60006020828403121561063157600080fd5b813567ffffffffffffffff8082111561064957600080fd5b818401915084601f83011261065d57600080fd5b81358181111561066f5761066f610609565b604051601f8201601f19908116603f0116810190838211818310171561069757610697610609565b816040528281528760208487010111156106b057600080fd5b826020860160208301376000928101602001929092525095945050505050565b600181811c908216806106e457607f821691505b60208210810361070457634e487b7160e01b600052602260045260246000fd5b50919050565b6000845161071c81846020890161058d565b60609490941b6bffffffffffffffffffffffff191691909301908152601481019190915260340192915050565b601f82111561079357600081815260208120601f850160051c810160208610156107705750805b601f850160051c820191505b8181101561078f5782815560010161077c565b5050505b505050565b815167ffffffffffffffff8111156107b2576107b2610609565b6107c6816107c084546106d0565b84610749565b602080601f8311600181146107fb57600084156107e35750858301515b600019600386901b1c1916600185901b17855561078f565b600085815260208120601f198616915b8281101561082a5788860151825594840194600190910190840161080b565b50858210156108485787850151600019600388901b60f8161c191681555b5050505050600190811b01905550565b60208152600061086b60208301846105b1565b939250505056fea2646970667358221220386edb5b1d7d5ce5a0a6f733cdf5c1eea4f942326cff4cf509a925d3db19a50f64736f6c63430008120033",
  "linkReferences": {},
  "deployedLinkReferences": {}
}