{
    "_format": "hh-sol-artifact-1",
    "contractName": "FileSharing",
    "sourceName": "contracts/FileSharing.sol",
    "abi": [
        {
            "anonymous": false,
            "inputs": [
                {
                    "indexed": true,
                    "internalType": "bytes32",
                    "name": "fileId",
                    "type": "bytes32"
                },
                {
                    "indexed": true,
                    "internalType": "address",
                    "name": "grantee",
                    "type": "address"
                },
                {
                    "indexed": false,
                    "internalType": "enum FileAccess.AccessLevel",
                    "name": "accessLevel",
                    "type": "uint8"
                }
            ],
            "name": "AccessGranted",
            "type": "event"
        },
        {
            "anonymous": false,
            "inputs": [
                {
                    "indexed": true,
                    "internalType": "bytes32",
                    "name": "fileId",
                    "type": "bytes32"
                },
                {
                    "indexed": true,
                    "internalType": "address",
                    "name": "grantee",
                    "type": "address"
                }
            ],
            "name": "AccessRevoked",
            "type": "event"
        },
        {
            "anonymous": false,
            "inputs": [
                {
                    "indexed": true,
                    "internalType": "bytes32",
                    "name": "fileId",
                    "type": "bytes32"
                },
                {
                    "indexed": true,
                    "internalType": "address",
                    "name": "owner",
                    "type": "address"
                },
                {
                    "indexed": true,
                    "internalType": "address",
                    "name": "recipient",
                    "type": "address"
                }
            ],
            "name": "FileShared",
            "type": "event"
        },
        {
            "anonymous": false,
            "inputs": [
                {
                    "indexed": true,
                    "internalType": "bytes32",
                    "name": "fileId",
                    "type": "bytes32"
                },
                {
                    "indexed": true,
                    "internalType": "address",
                    "name": "owner",
                    "type": "address"
                },
                {
                    "indexed": false,
                    "internalType": "string",
                    "name": "ipfsCid",
                    "type": "string"
                }
            ],
            "name": "FileUploaded",
            "type": "event"
        },
        {
            "inputs": [
                {
                    "internalType": "bytes32",
                    "name": "fileId",
                    "type": "bytes32"
                },
                {
                    "internalType": "address",
                    "name": "user",
                    "type": "address"
                }
            ],
            "name": "checkAccess",
            "outputs": [
                {
                    "internalType": "enum FileAccess.AccessLevel",
                    "name": "",
                    "type": "uint8"
                }
            ],
            "stateMutability": "view",
            "type": "function"
        },
        {
            "inputs": [
                {
                    "internalType": "bytes32",
                    "name": "",
                    "type": "bytes32"
                }
            ],
            "name": "files",
            "outputs": [
                {
                    "internalType": "address",
                    "name": "owner",
                    "type": "address"
                },
                {
                    "internalType": "string",
                    "name": "ipfsCid",
                    "type": "string"
                }
            ],
            "stateMutability": "view",
            "type": "function"
        },
        {
            "inputs": [
                {
                    "internalType": "address",
                    "name": "user",
                    "type": "address"
                }
            ],
            "name": "getSharedFiles",
            "outputs": [
                {
                    "internalType": "bytes32[]",
                    "name": "",
                    "type": "bytes32[]"
                }
            ],
            "stateMutability": "view",
            "type": "function"
        },
        {
            "inputs": [
                {
                    "internalType": "bytes32",
                    "name": "fileId",
                    "type": "bytes32"
                },
                {
                    "internalType": "address",
                    "name": "grantee",
                    "type": "address"
                },
                {
                    "internalType": "enum FileAccess.AccessLevel",
                    "name": "accessLevel",
                    "type": "uint8"
                }
            ],
            "name": "grantAccess",
            "outputs": [],
            "stateMutability": "nonpayable",
            "type": "function"
        },
        {
            "inputs": [
                {
                    "internalType": "bytes32",
                    "name": "fileId",
                    "type": "bytes32"
                },
                {
                    "internalType": "address",
                    "name": "grantee",
                    "type": "address"
                }
            ],
            "name": "revokeAccess",
            "outputs": [],
            "stateMutability": "nonpayable",
            "type": "function"
        },
        {
            "inputs": [
                {
                    "internalType": "bytes32",
                    "name": "fileId",
                    "type": "bytes32"
                },
                {
                    "internalType": "address",
                    "name": "recipient",
                    "type": "address"
                }
            ],
            "name": "shareFile",
            "outputs": [],
            "stateMutability": "nonpayable",
            "type": "function"
        },
        {
            "inputs": [
                {
                    "internalType": "string",
                    "name": "ipfsCid",
                    "type": "string"
                }
            ],
            "name": "uploadFile",
            "outputs": [
                {
                    "internalType": "bytes32",
                    "name": "",
                    "type": "bytes32"
                }
            ],
            "stateMutability": "nonpayable",
            "type": "function"
        }
    ],
    "bytecode": "0x608060405234801561001057600080fd5b50610d25806100206000396000f3fe608060405234801561001057600080fd5b506004361061007d5760003560e01c80633e1fd0da1161005b5780633e1fd0da146100d35780638d53b2081461011b57806398c9adff1461012e578063e37ffc301461014f57600080fd5b806310e51565146100825780631d15242214610097578063282f02c7146100c0575b600080fd5b61009561009036600461087b565b610170565b005b6100aa6100a53660046108a7565b61036a565b6040516100b791906108c9565b60405180910390f35b6100956100ce36600461090d565b61051b565b61010e6100e136600461087b565b6000828152602081815260408083206001600160a01b038516845260020190915290205460ff1692915050565b6040516100b79190610967565b61009561012936600461087b565b61062d565b61014161013c36600461098f565b61070a565b6040516100b79291906109f8565b61016261015d366004610a3a565b6107b9565b6040519081526020016100b7565b60008281526020819052604090205482906001600160a01b031633146101b15760405162461bcd60e51b81526004016101a890610aeb565b60405180910390fd5b6001600160a01b0382166102075760405162461bcd60e51b815260206004820152601960248201527f496e76616c696420726563697069656e7420616464726573730000000000000060448201526064016101a8565b6000838152602081905260409020546001600160a01b031633146102785760405162461bcd60e51b815260206004820152602260248201527f596f7520617265206e6f7420746865206f776e6572206f6620746869732066696044820152616c6560f01b60648201526084016101a8565b6000838152602081815260408083206001600160a01b03861684526002019091528120805460ff19166001179055805b6001548110156102f15784600182815481106102c6576102c6610b17565b9060005260206000200154036102df57600191506102f1565b806102e981610b2d565b9150506102a8565b508061032c576001805480820182556000919091527fb10e2d527612073b26eecdfd717e6a320cf44b4afac2b0732d9fcbe2b7fa0cf6018490555b6040516001600160a01b03841690339086907f7eaae5561b99c52aa935c7718653858a2708e6422f302150625e40234db3a39190600090a450505050565b60606000805b6001548110156103fd57600080806001848154811061039157610391610b17565b6000918252602080832090910154835282810193909352604091820181206001600160a01b03891682526002908101909352205460ff16908111156103d8576103d8610951565b146103eb57816103e781610b2d565b9250505b806103f581610b2d565b915050610370565b5060008167ffffffffffffffff81111561041957610419610a24565b604051908082528060200260200182016040528015610442578160200160208202803683370190505b5090506000805b60015481101561051157600080806001848154811061046a5761046a610b17565b6000918252602080832090910154835282810193909352604091820181206001600160a01b038b1682526002908101909352205460ff16908111156104b1576104b1610951565b146104ff57600181815481106104c9576104c9610b17565b90600052602060002001548383815181106104e6576104e6610b17565b6020908102919091010152816104fb81610b2d565b9250505b8061050981610b2d565b915050610449565b5090949350505050565b60008381526020819052604090205483906001600160a01b031633146105535760405162461bcd60e51b81526004016101a890610aeb565b6001600160a01b03831661059b5760405162461bcd60e51b815260206004820152600f60248201526e496e76616c6964206164647265737360881b60448201526064016101a8565b6000848152602081815260408083206001600160a01b038716845260029081019092529091208054849260ff199091169060019084908111156105e0576105e0610951565b0217905550826001600160a01b0316847f93df6b769e5d048e613e741b400dccc99f2ab71aa9da367242838834f521bdd18460405161061f9190610967565b60405180910390a350505050565b60008281526020819052604090205482906001600160a01b031633146106655760405162461bcd60e51b81526004016101a890610aeb565b6001600160a01b0382166106ad5760405162461bcd60e51b815260206004820152600f60248201526e496e76616c6964206164647265737360881b60448201526064016101a8565b6000838152602081815260408083206001600160a01b0386168085526002909101909252808320805460ff1916905551909185917fe7906b77ea165c70ad8268ce5b59b778a198edf9c1ae4118378eefdc76fce5f49190a3505050565b600060208190529081526040902080546001820180546001600160a01b03909216929161073690610b54565b80601f016020809104026020016040519081016040528092919081815260200182805461076290610b54565b80156107af5780601f10610784576101008083540402835291602001916107af565b820191906000526020600020905b81548152906001019060200180831161079257829003601f168201915b5050505050905082565b6000808233426040516020016107d193929190610b8e565b60408051601f198184030181529181528151602092830120600081815292839052912080546001600160a01b03191633178155909150600181016108158582610c1c565b50336001600160a01b0316827f7237b089d1a252ec5312d4f64b1378a99d12760dfcaa22429ba0bd7c31d3fc88866040516108509190610cdc565b60405180910390a35092915050565b80356001600160a01b038116811461087657600080fd5b919050565b6000806040838503121561088e57600080fd5b8235915061089e6020840161085f565b90509250929050565b6000602082840312156108b957600080fd5b6108c28261085f565b9392505050565b6020808252825182820181905260009190848201906040850190845b81811015610901578351835292840192918401916001016108e5565b50909695505050505050565b60008060006060848603121561092257600080fd5b833592506109326020850161085f565b915060408401356003811061094657600080fd5b809150509250925092565b634e487b7160e01b600052602160045260246000fd5b602081016003831061098957634e487b7160e01b600052602160045260246000fd5b91905290565b6000602082840312156109a157600080fd5b5035919050565b60005b838110156109c35781810151838201526020016109ab565b50506000910152565b600081518084526109e48160208601602086016109a8565b601f01601f19169290920160200192915050565b6001600160a01b0383168152604060208201819052600090610a1c908301846109cc565b949350505050565b634e487b7160e01b600052604160045260246000fd5b600060208284031215610a4c57600080fd5b813567ffffffffffffffff80821115610a6457600080fd5b818401915084601f830112610a7857600080fd5b813581811115610a8a57610a8a610a24565b604051601f8201601f19908116603f01168101908382118183101715610ab257610ab2610a24565b81604052828152876020848701011115610acb57600080fd5b826020860160208301376000928101602001929092525095945050505050565b6020808252601290820152712737ba103a3432903334b6329037bbb732b960711b604082015260600190565b634e487b7160e01b600052603260045260246000fd5b600060018201610b4d57634e487b7160e01b600052601160045260246000fd5b5060010190565b600181811c90821680610b6857607f821691505b602082108103610b8857634e487b7160e01b600052602260045260246000fd5b50919050565b60008451610ba08184602089016109a8565b60609490941b6bffffffffffffffffffffffff191691909301908152601481019190915260340192915050565b601f821115610c1757600081815260208120601f850160051c81016020861015610bf45750805b601f850160051c820191505b81811015610c1357828155600101610c00565b5050505b505050565b815167ffffffffffffffff811115610c3657610c36610a24565b610c4a81610c448454610b54565b84610bcd565b602080601f831160018114610c7f5760008415610c675750858301515b600019600386901b1c1916600185901b178555610c13565b600085815260208120601f198616915b82811015610cae57888601518255948401946001909101908401610c8f565b5085821015610ccc5787850151600019600388901b60f8161c191681555b5050505050600190811b01905550565b6020815260006108c260208301846109cc56fea264697066735822122083953bad7a29922ff3b319fdc95143c5a77d7c9d724e74eddf7cff756d4d1e8d64736f6c63430008120033",
    "linkReferences": {},
    "deployedLinkReferences": {}
}